:020000040800F2
:10000000400C0020D1000008353A00081D2F0008E0
:1000100000000000000000000000000000000000E0
:100020000000000000000000000000001141000876
:100030000000000000000000393A000813410008E9
:10004000E3000008E3000008E3000008E300000804
:10005000E3000008E3000008E3000008E3000008F4
:10006000E300000861090008E3000008E30000085D
:10007000E3000008E3000008E3000008E3000008D4
:10008000E3000008E3000008E3000008E3000008C4
:10009000E3000008E3000008E3000008E3000008B4
:1000A000E3000008E3000008E3000008E3000008A4
:1000B000E1470008E3000008E30000080348854624
:1000C00000F066FB00480047BD5A0008400C0020C5
:1000D0000448804704480047FEE7FEE7FEE7FEE7E6
:1000E000FEE7FEE7BD410008BD00000830B50B4645
:1000F000014600202022012409E00D46D5409D4202
:1001000005D31D469540491B254695404019154687
:10011000521E002DF1DC30BD70B5002425460028AC
:1001200001DA01244042002901DA01254942FFF7A2
:10013000DDFFAC4200D04042002C00D0494270BDEF
:10014000F0B51FB40646002082B005464024019158
:1001500000901BE0019922460F46304600F0C2F99C
:10016000049A059B801A994110D3104619462246DD
:1001700000F0A8F9361A8F4101972246012000218C
:10018000009F00F09FF938184D4100902046641EF2
:100190000028DFDC019B00982946324607B0F0BDFD
:1001A000F0B51FB486B00020009001900290069830
:1001B000069980B204900798090C020400141143B8
:1001C00007900027089D099806913E463C460390FB
:1001D0000398A9B20204000C039004982D0C154357
:1001E00048430021224600F06DF9C71971411034CF
:1001F0000E46402CECDB3846029A00F063F9009A78
:10020000019B801800905941029801911030029092
:100210004028CCDB00980BB0F0BD03460B439B0796
:1002200003D009E008C9121F08C0042AFAD203E06B
:100230000B780370401C491C521EF9D27047D2B291
:1002400001E00270401C491EFBD270470022F6E715
:1002500010B513460A4604461946FFF7F0FF20463C
:1002600010BD421C0178401C0029FBD1801A704748
:1002700003460A780270401C491C002AF9D118462E
:1002800070470000F0B51FB488B00B99099800249E
:1002900048400999C00F490049080991C0070B99C6
:1002A0000090490049080B9109990898A64608430F
:1002B0001CD00B990A98084318D0099801244000D3
:1002C000420D4800410D099824050003000B20430E
:1002D00009900B980003000B20430B9050181C4909
:1002E0004018002201901446104605E00020014607
:1002F0000DB0F0BD032801DA034600E003239C465D
:10030000C11A0AAE0AE05F0008ADED5B4F00F75B73
:100310007D430027AA187C41491C5B1E6145F2DD24
:10032000410004AB5A522104120C0A43240C401C15
:100330000828DFDB01980290009970460191009037
:10034000059B049A0799069800F0EAF8D0E70000A8
:100350000DFCFFFFF0B50C465C4085B0E40FE407F0
:1003600003944C000026640859009446490802464C
:100370000296224321D062460A431ED06200570DE6
:100380004A000E032303550D012402462C4924057F
:10039000781B1B0B360B4018234326436146009005
:1003A0001C46501AB44103D30098401C009002E050
:1003B000921800985B41002803DA0020014605B03E
:1003C000F0BD0020012109050746864611E064467C
:1003D0001D46141BB54106D36546521BB3417446F6
:1003E00007430C43A646CD07400849082843921806
:1003F0005B4105460D43EAD11046184313D06046D1
:10040000194650407140084306D06046101AB34167
:1004100006D20122002306E000220123DB0702E0CE
:100420000122D2435310009874460105381C6141E3
:10043000029C039D0019694100F065F8BFE70000C8
:10044000FD0300000EB5C217C10F5040CA07401887
:100450000021054B0293019200910A460B4600F0E1
:100460005FF803B000BD0000330400000EB505497D
:100470000291002100910A460B46019100F050F8CC
:1004800003B000BD330400004A0009030123090B37
:100490001B051943094B10B5520D9A4201DA002091
:1004A00010BD064B34339A4203DC9A1A00F01AF856
:1004B00010BD03495118884010BD0000FF03000023
:1004C000CDFBFFFF10B5202A04DB0146203A914006
:1004D000002010BD914020239C1A0346E34019439D
:1004E000904010BD10B5202A04DB0846203AD040C9
:1004F000002110BD0B46D340D0402024A21A9140C9
:100500000843194610BD10B5002B08DA0024401C22
:10051000614192185B411A4301D14008400010BD6F
:10052000F0B51FB482B005460C0003D0084604F0B5
:1005300079FB02E004F076FB203002460090214671
:100540002846FFF7BFFF049B059A04460F46184351
:100550001143084314D0184610431BD00098402183
:100560000A1A18460599FFF7BDFF05460E46009A80
:1005700005990498FFF7A6FF084305D0012004E081
:100580002046394607B0F0BD0020C11705430E4391
:100590002C43374300990E986305401A7905E40A05
:1005A00000220C43FD0A0A3002D500200146E9E78B
:1005B0000105101969410C9C0D9D00196941FFF757
:1005C000A2FFDFE7F0B507460846584087B0C00FE6
:1005D000049048000E46590040084908BC1A88415A
:1005E00005D2384631461E4617460B46024658008D
:1005F000400810434CD0300D039040055900400D89
:10060000490D0590401A0290402872DA1803012122
:10061000000B09050843019004980092002805D0BA
:100620000199524200208841009201900298402195
:100630000A1A01990098FFF745FF05460C466B46DC
:1006400007CB00F0B7F8C0197141039A0E0D0023D3
:10065000D71756401A467A40164344D0049A002AC7
:100660002DD0029A012A039A15DC1205C01A914175
:1006700001263605001C7141D20F059ED20700935A
:10068000019202962A462346FFF74AFF07B0F0BDC3
:1006900038463146FAE71605224A0F46B218C01A04
:1006A000B74101210905001C4F4100187F41114647
:1006B00018187941E20F10436D19644113E0E20705
:1006C0006D0815436408C2071443039A01261205F6
:1006D000C01A91413605001C7141CE0740083043D5
:1006E0004908C01851412A462346FFF70CFFCDE7C1
:1006F000FFE7049801224000C117121A00238B4122
:1007000004983146C417381AA141EEE730B40124E9
:10071000E407634030BC55E730B40124E40761408E
:1007200030BC4FE70000E0FF4A0009030123090B3A
:100730001B0519430A4B10B5520D9A4202DA0020EC
:10074000014610BD064B34339A4203DC9A1AFFF778
:10075000C9FE10BD034BD218FFF7B4FE10BD000058
:10076000FF030000CDFBFFFF10B5002904DB0124CF
:10077000E40740428C412146002B04DB1C46012348
:10078000DB075242A341994200D1904210BD0000C4
:10079000064C0125064E05E0E36807CC2B430C3CD4
:1007A00098471034B442F7D3FFF78CFC448200081A
:1007B0006482000810B5202A06DBCB170846203AD1
:1007C0001041C1170B4306E00B461341D0402024D3
:1007D000A21A91400843194610BD70B50546AC6A8F
:1007E000A06D50210840002831D1A06D012149029F
:1007F0000843A065206802F006FF002823D0A07EF1
:10080000002820D1206800680821084008281AD153
:10081000206802F0F2FE00280DD1206840680C210B
:10082000884321684860A06DFF2101318843012180
:100830000843A06507E0A06D20210843A065E06D96
:1008400001210843E065204600F09CFA0CE0A06D11
:1008500010210840002803D0204600F095FA03E05C
:10086000206D416B2846884770BD70B50546AC6A5F
:10087000A06D40210843A065E06D04210843E065B8
:10088000204600F081FA70BD70B50446A56A28467E
:1008900000F079FA70BD000038B5044600200090E1
:1008A000206802F09BFE00284FD12068806828490C
:1008B0000840002809D0A06D10210843A065E06D14
:1008C00001210843E065012038BD206802F078FE70
:1008D000204802F07DFE0121C905084000280DD006
:1008E0001D491E480068FFF701FC401C009002E013
:1008F0000098401E009000980028F9D1607E0128E1
:1009000023D000F0BFFE054616E0206802F066FE28
:10091000002802D1206802F053FE00F0B3FE401B15
:10092000022809D9A06D10210843A065E06D0121BE
:100930000843E0650120C7E720680068C007C00FD2
:100940000121484048400028DFD00020BCE70000DB
:100950001700008008270140400D03001800002008
:1009600010B5024800F034FC10BD000094000020D7
:1009700070B50446206C8008800009494018606406
:100980002178084608381421FFF7B0FB05460448D3
:100990008030A064E906C90E01208840E06470BD83
:1009A0000008024002799106890E4A1E9200064B09
:1009B000D2180265044A403242654A1E93079B0FD3
:1009C00001229A40826570470009024070B5856C2B
:1009D000C46C6C60046D002C02D0456D846D6C603D
:1009E0000C4C64681C26056C35400126AE4034432F
:1009F000084D6C60046863608468102C04D104683E
:100A0000A2600468E16003E00468A1600468E26039
:100A100070BD00000000024072B600BFFEE700009B
:100A2000F0B585B005460C460020039002900121E8
:100A3000C9072869884203D0091D2869884200D166
:100A400000E000BF00BF5420405D012802D1022019
:100A500005B0F0BD01215420415500BF286802F0C7
:100A6000CCFD002876D16068022874D00121C90726
:100A70002869884203D0091D2869884208D128685E
:100A80002168826A4B035B0B1A43826200BFC6E097
:100A90002179CA06D20E0F219140286E8843216821
:100AA0004903490B002905D11F22920621681140F4
:100AB000890E92E02178C907C90F002901D00021D1
:100AC0008BE0022221681140022901D1012184E03A
:100AD000042221681140042901D102217DE008226D
:100AE00021681140082901D1032176E010222168F4
:100AF0001140102901D104216FE02022216811400A
:100B0000202901D1052168E04022216811404029B7
:100B100001D1062161E0802221681140802901D1A4
:100B200007215AE0FF22013221681140914201D190
:100B3000082152E00122520221681140914201D164
:100B400009214AE00122920221681140914203D119
:100B50000A2142E0FAE0BAE00122D2022168114003
:100B6000914201D10B2138E001221203216811408A
:100B7000914201D10C2130E0012252032168114041
:100B8000914201D10D2128E00122920321681140F8
:100B9000914201D10E2120E00122D20321681140AF
:100BA000914201D10F2118E0012212042168114065
:100BB000914201D1102110E001225204216811401C
:100BC000914201D1112108E00122920421681140D3
:100BD000914201D1122100E000212279D206D20EE9
:100BE00091400843286660688008401CE969884293
:100BF00015D82868226861680192836ACF06FF0EC3
:100C00000F22BA4093430F27BF06019A3A40920E33
:100C1000CF06FF0EBA401343836200BF00BF2868AF
:100C200021680091A16801914269009909028A43F3
:100C300000990B024C4F019939400B401A43426115
:100C400000BF2068C00FC007002821D0474802F02D
:100C5000BFFC06464649206888421AD1C00230408F
:100C6000002816D1C80230430146404802F0DEFC9D
:100C7000404941480068FFF739FA0C214843401CBD
:100C8000029002E00298401E029002980028F9D1DA
:100C900062E03A49206888420AD180023040002848
:100CA00006D1880230430146304802F0BFFC53E0D1
:100CB0003349206888424FD14002304000284BD150
:100CC000480230430146294802F0B0FC44E00121CB
:100CD000C9072869884203D0091D2869884208D1BC
:100CE00028682168826A4B035B0B9A43826200BFCB
:100CF00000BF2068C00FC00700282DD01B4802F09D
:100D000067FC06461A492068884207D1C20230466D
:100D100090430146154802F089FC1DE01749206800
:100D2000884207D182023046904301460F4802F0C4
:100D30007DFC11E01249206888420DD14202304604
:100D400090430146094802F071FC05E0A86D20219E
:100D50000843A8650120039000BF0021542041559D
:100D600000BF039874E6000000FFFF07082701405A
:100D7000001000B0400D030018000020004000B833
:100D8000002000B47047704770470000FEB504466D
:100D900000200190002500260090002C01D10120A8
:100DA000FEBD2069002805D001214905206988423F
:100DB00000D100BFA06D002807D1204600F044F903
:100DC0000020E065002154200155206802F00EFC4F
:100DD000002816D120688168924A1140012212072A
:100DE0001143816000BF904990480068FFF77EF989
:100DF0004000009002E00098401E009000980028FB
:100E0000F9D1206802F0F2FB002809D1A06D102171
:100E10000843A065E06D01210843E06501200190D1
:100E2000206802F0EAFB0746A06D10210840002868
:100E300073D1002FFCD1A06D090188430221084322
:100E4000A065206802F0CAFB002838D12068C0687D
:100E500018218843A16808432168C8606068800F32
:100E60008007216C0843616C0843A16C0843E16C66
:100E7000084306433C20005D012800D1064320685A
:100E800000696B49084030432168086103218907E4
:100E90006068884213D04942606888420FD0490098
:100EA000606888420BD0634880680F2189048843BA
:100EB0000F2292046168114008435E498860207ED9
:100EC0008003617EC9030843A17E49030843216B67
:100ED000002902D00121090300E000210843E16854
:100EE00008432169C90FC907002903D021694900B6
:100EF000490801E00121490508432C21095D490009
:100F0000084305432020005D01280FD1A07E002862
:100F100004D101200004054308E07BE0A06D2021FE
:100F20000843A065E06D01210843E065606A002880
:100F300006D0FF21C131606A0840A16A0843054319
:100F40002068C0683C49084028432168C860206880
:100F500000693A4908403043216808610021626B0A
:100F6000206802F06AFB3649A26B206802F065FB3C
:100F70002069002807D12068806A0F21C9430843EF
:100F8000216888622AE0012149052069884225D12B
:100F9000002008E08200216ED1400907090F0F29C7
:100FA00000D102E0401C0828F4D300BF012807D17B
:100FB0002168896A0F22D2431143226891620CE0B2
:100FC000217F491E4907CA0E0F21C9439140226E55
:100FD00011432268926A2268916200BF2068C0684B
:100FE00018490840A84208D10020E065A06D022100
:100FF000884301210843A06512E0A06D02218843C7
:1010000010210843A065E06D01210843E06501203F
:10101000019005E0A06D10210843A065012001901A
:101020000198BDE6E8FFFF7F400D03001800002097
:1010300002FCFF1F002701401902FEFF02FCFFDF38
:1010400004FFFF07E7FF3F8310B586B00446142175
:1010500001A8FFF7FBF827492068884247D100BF65
:10106000254800680121090508432349086008460E
:101070000068012109050840009000BF00BF00BFC3
:101080001D484038406B012108431B4940394863E3
:101090000846406BC007C00F009000BF00BF032090
:1010A000019002900020039001A90520000700F0A4
:1010B000FBF91248124908600520486000211048D9
:1010C0008160C160802101614900416189008161C5
:1010D0002021C1610021016200F00AF9002801D03D
:1010E000FFF79AFC00BF06482065846200BF06B087
:1010F00010BD0000002401404010024008000240E2
:1011000094000020F8B504460E461746206802F009
:1011100074FA002850D100BF5420005D012801D18D
:101120000220F8BD01215420015500BF2068C0688D
:10113000084000280DD1206802F050FA002802D0A3
:10114000206802F035FA2068C06801210843216850
:10115000C8602046FFF7A0FB0546002D2DD1A06DED
:1011600017490840FF2101310843A0650020E065D0
:101170001448216DC8621448216D08631348216D1D
:1011800048631C202168086000BF002154200155DD
:1011900000BF206840681021084321684860226829
:1011A000114640313B463246206D00F001F90546BC
:1011B000206802F033FA00E002252846B1E700007B
:1011C000FEF1FFFFDB070008890800086B08000834
:1011D00070B5044645480568206806681C20216CE7
:1011E0000140042088402840002820D004203040BE
:1011F00000281CD02068006820210840002805D164
:1012000020680068042188432168086037484068E6
:101210001C22216C114004228A401043334948604B
:10122000206B002860D02046216B88475CE01C20A2
:10123000216C0140022088402840002828D002204C
:101240003040002824D02068006820210840002871
:1012500008D1206800680A218843216808600121BC
:1012600025200155214841681C22206C1040022293
:10127000824011431D48416000BF002124200155D8
:1012800000BFE06A00282FD02046E16A88472BE0A3
:101290001C20216C0140082088402840002823D0D1
:1012A0000820304000281FD0206800680E218843A5
:1012B000216808600D4841681C22206C1040012202
:1012C00082401143094841600120E063012125204B
:1012D000015500BF00212420015500BF606B00288C
:1012E00002D02046616B884770BD000000000240BC
:1012F00010B50446002C01D1012010BD2A4A2168F6
:10130000881A1421FEF7F2FE8000206402212520B5
:101310000155206800682549084021680860E16897
:10132000A06808432169084361690843A16908432B
:10133000E1690843216A0843216809680843216874
:1013400008602046FFF714FB01218903A06888424A
:1013500001D10020606020798006800E616C0860F9
:10136000A16CE06C4860606800280CD060680428BC
:1013700009D82046FFF716FB0020216D0860616D3B
:10138000A06D486003E0002020656065A065002036
:10139000E06301212520015500BF002124200155D3
:1013A00000BF0020A9E70000080002400F80FFFFF7
:1013B000F8B504460D4616461F460020009000BFB3
:1013C0002420005D012801D10220F8BD0121242044
:1013D000015500BF2520005D012844D102212520B0
:1013E00001550020E0632068006840084000216843
:1013F00008603B46324629462046FFF7E7FA206B55
:10140000002806D0206800680E2108432168086083
:101410000BE0206800680421884321680860206888
:1014200000680A21084321680860606C0068012197
:1014300009040840002805D0606C006809120843C0
:10144000616C0860206D002806D0206D0068FF21C7
:1014500001310843216D08602068006801210843BC
:101460002168086008E08020E06300BF002124209C
:10147000015500BF012000900098A6E770B5044612
:1014800000F000F906462546681C002802D00548F1
:1014900000782D1800BF00F0F5F8801BA842FAD3A1
:1014A00070BD00001400002070B503460022D5E096
:1014B000012696400C683440002C71D04D68012DF7
:1014C00008D04D68022D05D04D68112D02D04D6811
:1014D000122D18D1986856000325B5400646AE4334
:1014E00030465600CD68B5402843986058680125BD
:1014F00095400646AE43304610264D6835402D09CE
:10150000954028435860D86856000325B5400646E4
:10151000AE43304656008D68B5402843D8604D68CC
:10152000022D02D04D68122D15D1D508AE001D46F2
:101530002035A8595507EE0E0F25B5400646AE4397
:1015400030465607F60E0D69B5402843D508AD0064
:101550001E4620367051186856000325B5400646D1
:10156000AE4330460D79AD07AD0F5600B540284368
:101570001860012636074D683540B5426DD13A4DA9
:101580009608B600A8599507EE0E0F25B5400646F9
:10159000AE43304605252D07AB4202D1002510E0B1
:1015A0005BE0324DAB4201D101250AE0304DAB4248
:1015B00001D1022505E02F4DAB4201D1032500E00A
:1015C00005259607F60EB5402843274D9608B60028
:1015D000A851254D203528680546A54328460126F3
:1015E00036044D683540B54202D1054625432846AC
:1015F0001D4D2035286068680546A543284601260C
:1016000076044D683540B54202D10546254328464B
:10161000154D20356860144D603D28680546A5438A
:101620002846012636054D683540B54202D10546AB
:10163000254328460C4D603D286068680546A54353
:101640002846012676054D683540B54202D105464B
:1016500025432846044D603D6860521C0D68D54006
:10166000002D00D024E770BD601802400004005037
:1016700000080050000C0050002A01D0816100E0F9
:101680008162704701480068704700000C0000202C
:1016900002464120805C20282FD100BF4020805C82
:1016A000012801D10220704701234020835400BF4C
:1016B00024234120835410680068400840001368C8
:1016C00018601068006801231B03984313681860B2
:1016D00010680068084313681860106800680123E8
:1016E00018431368186020234120835400BF00234F
:1016F0004020835400BF0020D5E70220D3E710B577
:1017000002460B464120805C20282ED100BF40209D
:10171000805C012801D1022010BD012440208454A6
:1017200000BF242441208454106800684008400011
:1017300014682060106801680F2424020846A04342
:101740000146180201431068016010680068012416
:1017500020431468206020244120845400BF0024CA
:101760004020845400BF0020D6E70220D4E70000C8
:1017700010B50446002C01D1012010BD4120005DB0
:10178000002805D1002140200155204600F0C6F96F
:10179000242141200155206800684008400021684C
:1017A00008600F2109066068884321680861206885
:1017B00080680121C903884321688860E0680128A6
:1017C00006D10121C903A06808432168886005E0AB
:1017D00021218902A068084321688860E068022806
:1017E00002D180022168486020684068144908439B
:1017F000216848602068C0680121C90388432168C6
:10180000C860616920690843A16909020843216829
:10181000C860216AE06908432168086020680068A0
:1018200001210843216808600020606420214120D4
:1018300001550020206300214220015500209CE733
:1018400000800002FFB581B0044616461F464120C5
:10185000005D202877D100BF4020005D012802D123
:10186000022005B0F0BD01214020015500BFFFF767
:1018700009FF054619230122D1032046009501F0F6
:10188000D5FB002801D00120EBE7222141200155A2
:101890001021422001550020606466626785606304
:1018A000608DFF280BD9FF2020853F480090208DB8
:1018B000C2B20B052046029901F09CFB0BE0608D43
:1018C000208539480090208DC2B201235B06204656
:1018D000029901F08FFB43E02A4620460A9901F065
:1018E000D1FB002801D00120BBE72068406A616A73
:1018F0000870606A401C6062208D401E2085608DEB
:10190000401E6085608D00282AD0208D002827D1B8
:1019100000950022802120460A9B01F087FB0028C9
:1019200001D001209DE7608DFF280DD9FF20208583
:1019300000200090208DC2B201231B062046029990
:1019400001F058FB0CE02CE0608D20850020009019
:10195000208DC2B201235B062046029901F04AFBAA
:10196000608D0028B8D12A4620460A9901F0E2FB92
:10197000002801D0012074E720202168C861206878
:1019800040680A49084021684860202141200155EB
:1019900000214220015500BF4020015500BF00201A
:1019A0005FE702205DE700000024008000E800FE01
:1019B000FFB581B0044616461F464120005D202831
:1019C00077D100BF4020005D012802D1022005B080
:1019D000F0BD01214020015500BFFFF753FE054631
:1019E00019230122D1032046009501F01FFB002896
:1019F00001D00120EBE72121412001551021422097
:101A0000015500206064666267856063608DFF2811
:101A10000BD9FF2020853F480090208DC2B20B05D6
:101A20002046029901F0E6FA0BE0608D20853948E6
:101A30000090208DC2B201235B062046029901F07E
:101A4000D9FA43E02A4620460A9901F0A0FB002873
:101A500001D00120BBE7606A007821688862606A73
:101A6000401C6062608D401E6085208D401E208578
:101A7000608D00282AD0208D002827D100950022D3
:101A8000802120460A9B01F0D1FA002801D00120D4
:101A90009DE7608DFF280DD9FF2020850020009054
:101AA000208DC2B201231B062046029901F0A2FA42
:101AB0000CE02CE0608D208500200090208DC2B2CB
:101AC00001235B062046029901F094FA608D0028FC
:101AD000B8D12A4620460A9901F02CFB002801D0F3
:101AE000012074E720202168C861206840680A4905
:101AF00008402168486020214120015500214220F2
:101B0000015500BF4020015500BF00205FE70220C3
:101B10005DE700000020008000E800FE10B586B000
:101B20000446142101A8FEF791FB3249206888423F
:101B30002DD100BF3048406B012108432E49486336
:101B40000846406BC007C00F009000BF00BF0320D5
:101B50004002019012200290012003900020049086
:101B60000620059001A905200007FFF79DFC00BF96
:101B70002148C06B0121490508431F49C863084635
:101B8000C06B012149050840009000BF30E01B49AF
:101B9000206888422CD100BF1748406B02210843BF
:101BA000154948630846406B02210840009000BF79
:101BB00000BF0320800201901220029001200390B8
:101BC000002004900620059001A90D48FFF76CFC49
:101BD00000BF0948C06B0121890508430649C86355
:101BE0000846C06B012189050840009000BF00BF76
:101BF00006B010BD005400400010024000580040E4
:101C0000000400500348006803490978401801495E
:101C1000086070470C0000201400002010B500245C
:101C200008480068FF210131084306490860002088
:101C300000F00AF8002801D0012401E000F034F897
:101C4000204610BD00200240F8B504460025134888
:101C5000007800281ED0114801787D20C000FEF7D2
:101C600045FA074639460E480068FEF73FFA064631
:101C700001F01EF800280BD1042C07D200222146C7
:101C8000401E00F049F80748046004E0012502E026
:101C9000012500E001252846F8BD000014000020C1
:101CA000180000201000002008B500BF1048006890
:101CB000012108430E49086008460068C007C00FAC
:101CC000009000BF00BF00BF09484038C06B8905C5
:101CD000084307494039C8630846C06B09040840F7
:101CE000009000BF00BF0320400200F0D5FF08BDF8
:101CF000401002400146002909DB00BF00BFCB06AF
:101D0000DB0E01229A40034B1A6000BF00BF00BFE8
:101D10007047000000E100E070B504460D4616462D
:101D20002946204602F0A4FF70BD000070B50446AD
:101D30001148006803214902884320430E49086086
:101D40004815844216D10D490968062251430846B8
:101D50000B49FEF7CBF9451C05E0002D01D06D1EA7
:101D600001E0032070BD0448406901218902084058
:101D70008842F2D00020F5E70070004018000020F3
:101D800040420F00FEB504460027002002900121CA
:101D900049042068084088427BD100200190B34864
:101DA000C06BC902084000280ED100BFAF48C06B0D
:101DB0000843AE49C8630846C06B09040840009058
:101DC00000BF00BF01200190A9480068FF21013138
:101DD0000843A7490860FFF755FC064606E0FFF7F1
:101DE00051FC801B022801D9032706E0A0480068A7
:101DF000FF21013108400028F1D000BF002F4BD156
:101E00009A484030C569032109020D40002D1AD0BF
:101E1000206BA84217D095484030C06988430546DA
:101E200092484030C0690121090408438F4940317C
:101E3000C8610846C0690121090488438B494031C3
:101E4000C8610846C561E807C00F002813D0FFF736
:101E500019FC064607E0FFF715FC801B8549884200
:101E600001D9032706E081484030C06902210840BB
:101E70000028F0D000BF002F0CD17C484030C06952
:101E8000032109028843216B084378494031C86126
:101E900003E00DE0029700E002970198012806D1C7
:101EA0007248C06B0121090788437049C86300BFAD
:101EB0002078C007C00F002809D06C484030406926
:101EC0008008800061680843684940314861022108
:101ED00020680840022809D16448403040690C213C
:101EE0008843A16808436149403148611021206856
:101EF000084010280AD15D4840304069032189021A
:101F00008843E16808435949403148610121490249
:101F10002068084088420AD1544840304069032173
:101F200089048843A169084350494031486101212F
:101F300089022068084088420AD14C4840304069F4
:101F4000032109058843E169084348494031486154
:101F500020212068084020280AD1444840304069A8
:101F600003210903884321690843404940314861FE
:101F70000121890320680840884213D13B48403042
:101F8000406980008008216A08433849403148612F
:101F90000906206A884205D13448C068891308437D
:101FA0003249C8600121C90420680840884209D12B
:101FB0002E484030406940218843616A08432B49DC
:101FC000403148610121490520680840884214D108
:101FD00026484030406949008843A16A08432349A4
:101FE0004031486101218905A06A884205D11F4816
:101FF000C068890008431D49C8600121890520681F
:102000000840884213D1194840304069890088430C
:10201000E16A084315494031486101210906E06A37
:10202000884204D11148C06808431049C8600121A2
:10203000C90220680840884215D10C4840304069E8
:102040000321890388436169084308494031486195
:10205000012189036069884205D10448C06889006C
:1020600008430249C8600298FEBD0000001002400B
:10207000007000408813000070B504460D46002C27
:1020800001D1012070BD6B4800684007400FA84295
:1020900018D268480068C008C00028436549086035
:1020A000FFF7F0FA064607E0FFF7ECFA801B6249FB
:1020B000884201D90320E5E75E4800684007400FE9
:1020C000A842F1D1022120680840022815D104213C
:1020D00020680840042807D1584880680721090370
:1020E0008843401855498860544880680F21090288
:1020F0008843A1680843514988602078C007C00F11
:10210000002854D06068012808D14C48006801219B
:102110004904084000282ED10120B3E76068022856
:1021200008D146480068012149060840002822D10C
:102130000120A7E76068002808D140480068012115
:1021400089020840002816D101209BE76068032817
:1021500008D13A484030006A0221084000280AD1DC
:1021600001208FE735484030C0690221084000282F
:1021700001D1012086E731488068C008C00061684D
:1021800008432E498860FFF77DFA064607E0FFF70F
:1021900079FA801B2849884201D9032072E7274831
:1021A0008068382108406168C9008842EFD1214821
:1021B00000684007400FA84218D91E480068C008B0
:1021C000C00028431B490860FFF75CFA064607E099
:1021D000FFF758FA801B1849884201D9032051E7BC
:1021E000144800684007400FA842F1D1042120683C
:1021F0000840042808D11148806807210903884352
:10220000E16808430D49886000F03AF80B49896895
:102210000F2212021140090A8900094A515CC906BD
:10222000C90EC8400749086007480068FFF70CFD61
:1022300028E7000000200240881300000010024040
:10224000A08100081800002010000020014800684C
:10225000704700001800002000B5FFF7F7FF06499F
:102260008968072212031140090B8900034A515C57
:10227000C906C90EC84000BD00100240E081000838
:10228000FEB5354880683821084000280DD1324815
:10229000006809020840C10A0120884000902F48C8
:1022A0000099FDF723FF044654E02B48806838214D
:1022B0000840082801D12A4C4CE027488068382182
:1022C0000840102834D12448C0688607B60F224839
:1022D000C068702108400009401C0190022E0FD0F8
:1022E000032E0CD11E480199FDF700FF1A49C96859
:1022F0007F2212021140090A484305460DE000BF43
:1023000016480199FDF7F2FE1349C9687F221202AF
:102310001140090A4843054600BF00BF0E48C06887
:10232000400F471C39462846FDF7E0FE044611E001
:102330000948806838210840202801D1840209E03A
:102340000548806838210840182802D17D242402DD
:1023500000E000242046FEBD001002400024F400EE
:1023600000127A00FEB50446002C01D10120FEBD0A
:102370002078C007C00F00286FD0F7488768382141
:102380000F40C0688607B60F102F01D1032E01D071
:10239000082F0BD1F04800680121490408400028AB
:1023A0005BD06068002858D10120E0E700BF012120
:1023B00009046068884205D1E74800680843E64997
:1023C000086021E005210904606888420ED1E248D6
:1023D0000068012189040843DF4908600846006855
:1023E000012109040843DC4908600DE0DA4800686F
:1023F000012109048843D849086008460068012182
:1024000089048843D449086000BF6068002812D05E
:10241000FFF738F9054606E0FFF734F9401B64285A
:1024200001D90320A3E7CC480068012149040840F2
:102430000028F1D011E0FFF725F9054606E0FFF787
:1024400021F9401B642801D9032090E7C2480068A5
:102450000121490408400028F1D1022120680840E8
:10246000022873D1BC488068382108400746BA4822
:10247000C0688607B60F102F01D1022E01D0002FA1
:1024800036D1B5480068012189020840002804D0EF
:10249000E068002801D1012069E7AF4840687F214A
:1024A00009028843616909020843AB494860002F6B
:1024B00016D1084600680721C902884321690843EC
:1024C000A5490860084600680722D2021040C20AE7
:1024D000012090400146A148FDF708FEA049086090
:1024E000A0480068FFF7B0FB002849D001203EE774
:1024F000E06800282BD0984800680721C90288436B
:102500002169084394490860084600688915084312
:1025100091490860FFF7B6F8054606E0FFF7B2F804
:10252000401B022801D9032021E78B4800680121C4
:10253000890208400028F1D0874840687F210902BD
:1025400088436169090208438349486018E082486A
:102550000068FF21013188437F490860FFF792F846
:10256000054606E0FFF78EF8401B022801D903203C
:10257000FDE6794800680121890208400028F1D170
:10258000082120680840082849D17348806838210C
:10259000084018280BD170484030006A02210840DA
:1025A00000283CD0A069002839D10120DFE6A069CD
:1025B00000281AD068484030006A01210843664963
:1025C00040310862FFF75EF8054606E0FFF75AF86B
:1025D000401B022801D90320C9E65F484030006A49
:1025E000022108400028F1D019E05B484030006A21
:1025F00040084000584940310862FFF743F805465B
:1026000006E0FFF73FF8401B022801D90320AEE6A1
:1026100051484030006A022108400028F1D10421CD
:102620002068084004287CD1002001904A48806836
:102630003821084020280BD147484030C06902218A
:10264000084000286ED0A06800286BD101208EE6DB
:102650004148C06B010F01208843002810D000BF03
:102660003D48C06B0121090708433B49C863084640
:10267000C06B09040840009000BF00BF012001901A
:1026800039480068FF2101310840002816D136483A
:102690000068084334490860FEF7F4FF054606E089
:1026A000FEF7F0FF401B022801D903205FE62E4809
:1026B0000068FF21013108400028F1D000BFA06868
:1026C000012808D124484030C0690121084322492B
:1026D0004031C86120E0A06805280FD11E48403075
:1026E000C069042108431C494031C8610846C069DB
:1026F0000121084318494031C8610DE016484030B7
:10270000C0694108490014484030C161C0690421D2
:10271000884311494031C86100BFA068002816D025
:1027200001E040E03EE0FEF7ADFF054607E0FEF7C2
:10273000A9FF401B0D49884201D9032017E606482E
:102740004030C069022108400028F0D01EE0FEF7AA
:1027500099FF054614E00000001002400024F40038
:1027600018000020100000200070004088130000B6
:10277000FEF788FF401B6849884201D90320F6E52F
:102780006648C069022108400028F1D1019801285B
:1027900008D162484038C06B0121090788435F496E
:1027A0004039C86300BFE06900285CD05B4840380E
:1027B00080683821084010286FD0E069022853D182
:1027C000564840380068012109068843534940397A
:1027D0000860FEF757FF054606E0FEF753FF401B73
:1027E000022801D90320C2E54C4840380068012185
:1027F000490608400028F0D1616A206A0843A16AAE
:1028000009020843E16A0843216B0843616B0843EE
:1028100042494039C968424A114008433F4940395A
:10282000C860084600680121090608433B49403951
:1028300008600846C0680904084338494039C86040
:10284000FEF720FF054606E0FEF71CFF401B0228AE
:1028500001D903208BE53148403800680121490641
:1028600008400028F0D054E02C484038006801218E
:10287000090688432949403908600846C06880082D
:102880008000C8600846C06826490840234940398E
:10289000C860FEF7F7FE054607E00FE0FEF7F2FE20
:1028A000401B022801D9032061E51C48403800681C
:1028B0000121490608400028F0D12AE0E0690128FA
:1028C00000D154E515484038C668B107890F206A21
:1028D00081421CD170203040616A884217D17F202C
:1028E00000023040A16A0902884210D11F20400432
:1028F0003040E16A88420AD1072040063040216B0F
:10290000884204D1710F4907606B814201D00120D8
:102910002DE500202BE50000881300004010024048
:102920008C80C111FFFFFEEE70B50446002C01D172
:10293000012070BD606A002808D1FF210531606860
:10294000884200D105E00021E16102E0002121611F
:1029500061610021A1625D20005D002804D15C203E
:102960000155204600F066F802215D2001552068DF
:102970000068402188432168086007210902E06857
:10298000884201D9002501E001252D030F2109020C
:10299000E068884206D007210902E068884201D039
:1029A0000021A162FF2105316068084021229202C6
:1029B000A168114008430222216911400843217D8A
:1029C000C907C90F08431202A16911400843382200
:1029D000E169114008438022216A114008439201B5
:1029E000A16A1140084321680860A069000C042115
:1029F00008401022616A114008430822616B1140AF
:102A000008430F221202E168114008430121090323
:102A100029400843216848602068C0690121C90233
:102A200088432168C8610020206601215D2001558E
:102A300000207EE710B586B00446142101A8FDF7FA
:102A400005FC1F492068884238D100BF1D48C06B73
:102A5000091408431B49C8630846C06B0121890358
:102A60000840009000BF00BF00BF1648406B022125
:102A70000843144948630846406B0221084000900F
:102A800000BF00BFFF208130019002200290002093
:102A9000039004900120059001A90B48FEF704FD66
:102AA0000120400201900220029000200390049037
:102AB0000520059001A90448FEF7F6FC06B010BDFC
:102AC000003800400010024000040050FFB583B001
:102AD000044616461D460020029000BF5C20005DA3
:102AE000012802D1022007B0F0BD01215C20015570
:102AF00000BFFEF7C7FD074601965D20005D012877
:102B000002D002200290BDE00498002801D0002EDF
:102B100002D101200290B5E003215D200155002083
:102B200020660498A063A687E68700202064002121
:102B3000442001534620015300202065E064012118
:102B4000C903A06888420CD12068006840218843EE
:102B50002168086020680068012189030843216812
:102B600008602068006840210840402804D02068A0
:102B7000006808432168086007210902E06888426C
:102B800032D96068002802D00198012809D1A06BD1
:102B900000882168C860A06B801CA063E08F401E85
:102BA000E0871DE0206880680221084002280AD1E1
:102BB000A06B00882168C860A06B801CA063E08FB8
:102BC000401EE0870CE0FEF75DFDC01BA84202D36B
:102BD000681C002801D1002D02D10320029051E091
:102BE000E08F0028DED131E06068002802D0019833
:102BF000012809D1A06B007821680873A06B401CE4
:102C0000A063E08F401EE0871DE0206880680221FD
:102C1000084002280AD1A06B007821680873A06BD5
:102C2000401CA063E08F401EE0870CE0FEF72AFD09
:102C3000C01BA84202D3681C002801D1002D02D17C
:102C4000032002901EE0E08F0028DED13A4629469C
:102C5000204601F037F9002801D020202066A06826
:102C6000002809D100BF00902068C068009020684B
:102C70008068009000BF00BF206E002801D00120B6
:102C8000029000BF01215D20015500BF00215C20A2
:102C9000015500BF029826E7044909680322520241
:102CA00091430143014A1160704700000000014058
:102CB00070B504462546681E0949884201D901209D
:102CC0000CE0681E074948610321081F01F0D0FF8E
:102CD00000200449886107200861002070BD0000C1
:102CE000FFFFFF0000E000E0014600BF8020405CE5
:102CF000012801D10220704701238020435400BFE6
:102D0000242384204350086802680868006840084B
:102D100040000B68186001235B0710469843024689
:102D2000002048660868026020238420435000BFCA
:102D300000238020435400BF0020DCE770B5044628
:102D40000D4600BF8020005D012801D1022070BD2A
:102D500001218020015500BF2421842001512068D9
:102D60000668206800684008400021680860206804
:102D700080680721490688432843216888602046E7
:102D800001F024FA2068066020218420015100BF50
:102D900000218020015500BF0020D8E770B504460F
:102DA0000D4600BF8020005D012801D1022070BDCA
:102DB00001218020015500BF242184200151206879
:102DC00006682068006840084000216808602068A4
:102DD0008068C000C008284321688860204601F050
:102DE000F5F92068066020218420015100BF0021F0
:102DF0008020015500BF0020D9E710B50446002C03
:102E000001D1012010BDA069002800D000E000BF62
:102E100084200059002805D100218020015520463A
:102E200000F02CF82421842001512068006840081B
:102E3000400021680860204601F0BEFA012800D158
:102E4000E0E7A06A002802D0204601F001FA2068DD
:102E500040680921C9028843216848602068806869
:102E60002A2188432168886020680068012108437E
:102E700021680860204601F063FAC3E710B586B008
:102E80000446142101A8FDF7E1F920492068884291
:102E900039D100BF1E48C06B0121490408431C49B9
:102EA000C8630846C06B012149040840009000BF78
:102EB00000BF00BF1648406B08210843144948630F
:102EC0000846406B08210840009000BF00BF60200A
:102ED000019002200290002003900490059001A927
:102EE0000C48FEF7E1FA002201211C20FEF714FF36
:102EF0001C20FEF7FFFE08480068006820210843F8
:102F000005490968086006B010BD00000044004093
:102F100000100240000C0050EC01002000BFFEE752
:102F200001688969022211404908002902D0002164
:102F30000268916201688969C907C90F012251407D
:102F40005140002904D101688969114302689161E7
:102F50007047000070B504460D461646206880692B
:102F600010210840000900283FD018E0681C002804
:102F700015D0FEF787FB801BA84201D8002D0ED18B
:102F8000606C2021084360644120015500214220EB
:102F9000015500BF4020015500BF012070BD2068D1
:102FA00080692021084040090028DFD010202168D6
:102FB000C86120202168C8612046FFF7B1FF206862
:102FC00040680B49084021684860606C0421084350
:102FD000606420214120015500214220015500BF9D
:102FE0004020015500BF0120D8E70020D6E70000AF
:102FF00000E800FEF0B504686568059C640D0126D4
:10300000B6023440084E26432C46B4438D05AD0D20
:103010001604FF273F043E4035431D43059E3543BC
:103020002C4305686C60F0BDFF63FF03F8B50446F0
:103030000E4617461D4619E0681C002816D0FEF7FC
:1030400021FB0699401AA84201D8002D0ED1606CD0
:103050002021084360644120015500214220015590
:1030600000BF4020015500BF0120F8BD20688069E5
:103070003040B04201D1012000E00020B842DBD056
:103080000020F2E770B504460D46164646E032468B
:1030900029462046FFF75EFF002801D0012070BDC1
:1030A00020688069202108404009002822D020683B
:1030B0008069042108408008002804D0208D002861
:1030C00001D00020EBE720202168C861206840681B
:1030D0001749084021684860002060642021412091
:1030E000015500214220015500BF4020015500BF7D
:1030F0000120D4E7FEF7C6FA801BA84201D8002DB4
:103100000CD1606C2021084360644120015500BF50
:1031100000214020015500BF0120C0E720688069E0
:103120000421084080080028B1D00020B7E7000043
:1031300000E800FE70B504460D4616461EE0324615
:1031400029462046FFF706FF002801D0012070BD68
:10315000FEF798FA801BA84201D8002D0ED1606CB2
:10316000202108436064412001550021422001557F
:1031700000BF4020015500BF0120E8E720688069BA
:103180002021084040090028D9D00020DFE770B591
:1031900004460D46164621E0324629462046FFF7F2
:1031A000D9FE002801D0012070BD681C002815D070
:1031B000FEF768FA801BA84201D8002D0ED1606C82
:1031C000202108436064412001550021422001551F
:1031D00000BF4020015500BF0120E5E7206880695D
:1031E0000221084040080028D6D00020DCE700007B
:1031F0004020014988627047000400504020014986
:10320000886170470004005030B5FFB098B00546A3
:1032100028122902084385B2002403E001A90D55B4
:10322000601C84B24B20C0008442F7DBEF231A46B7
:103230000021084600F068F9002407E005224B2130
:10324000C90001A800F074FE601C84B2C02CF5DB3C
:103250007FB018B030BD10B500F046F9642002F020
:103260006BFA00F049F9142002F066FA362000F0FB
:103270008CF9A02000F094F93A2000F086F905209E
:1032800000F08EF9B22000F080F90C2000F088F9EF
:103290000C2000F085F9002000F082F9332000F0C6
:1032A0007FF9332000F07CF9B72000F06EF935206B
:1032B00000F076F9BB2000F068F9322000F070F9D8
:1032C000C22000F062F9012000F06AF9C32000F08A
:1032D0005CF9152000F064F9C42000F056F92020B4
:1032E00000F05EF9C62000F050F90F2000F058F908
:1032F000D02000F04AF9A42000F052F9A12000F0FB
:103300004FF9E02000F041F9D02000F049F9082001
:1033100000F046F90E2000F043F9092000F040F9D2
:10332000092000F03DF9052000F03AF9312000F0C5
:1033300037F9332000F034F9482000F031F9172034
:1033400000F02EF9142000F02BF9152000F028F9D8
:10335000312000F025F9342000F022F9E12000F0BE
:1033600014F9D02000F01CF9082000F019F90E2003
:1033700000F016F9092000F013F9092000F010F907
:10338000152000F00DF9312000F00AF9332000F08B
:1033900007F9482000F004F9172000F001F9142083
:1033A00000F0FEF8152000F0FBF8312000F0F8F8EE
:1033B000342000F0F5F8212000F0E7F8112000F0AB
:1033C000E4F8292000F0E1F810BD0000FFB5FFB0DF
:1033D000FFB085B016461F4602ADFFA8406B2038EF
:1033E0008005010C0191FFA840691F3083B2FFA83E
:1033F00000690F3082B2FFA84169006900F084F8CB
:103400000021FFA8C1603EE0002417E0FFA8C068CB
:103410004100019808182349085C80212141084097
:10342000002804D02E80304600F0A4F803E02F805E
:10343000384600F09FF8601CC4B2AD1C082CE5DBD8
:10344000002418E0FFA8C068410001980818401C3B
:103450001449085C802121410840002804D02E80B6
:10346000304600F087F803E02F80384600F082F8FD
:10347000601CC4B2AD1C082CE4DBFFA8C068401C73
:10348000C1B2FFA8C160FFA8C0682028BCDB0A2227
:103490000121890202A800F04BFD7FB07FB009B086
:1034A000F0BD000037690008FFB581B0074614463B
:1034B0001D460A9E20122102084384B228122902C6
:1034C000084385B20BE030782B4622460090384600
:1034D0000299FFF77BFF38461030C7B2761C307870
:1034E0000028F0D105B0F0BD0120800201498862BA
:1034F00070470000000800500120800201498861E7
:103500007047000000080050F8B504460D46164606
:103510001F46002000902A2000F037F82046503047
:103520000004010E6846017020465030C1B2684662
:103530004170304650300004010E684681703046BC
:103540005030C1B26846C1700122042100F0F0FC85
:103550002B2000F01AF829126846017045703912C4
:103560008170C7700122042100F0E2FC2C2000F0E1
:103570000CF8F8BD38B50446211268460170447055
:103580000122022100F0D4FC38BD01B5FFF730FE66
:1035900001221146684600F0CBFCFFF72FFE08BD64
:1035A00001B501221146684600F0C2FC08BD0000CA
:1035B0008168024A1140891C81607047E8FFFF7FE3
:1035C0008168024A1140491C81607047E8FFFF7F13
:1035D0000146086807229205104070470146886836
:1035E000C007C00F01225040504070470146886814
:1035F000012212071040000F70470146886804221C
:103600001040800870470146C868032292021040AB
:10361000002801D1012070470020FCE78168024AA0
:103620001140091D81607047E8FFFF7F0268072392
:103630009B059A430A430260704730B543690424EE
:103640000D4625400724AC40A34304240C401546F6
:10365000A5402B43436130BD0EB500200090019082
:10366000029024482449086000054860002122484F
:103670008160C1600121490501610421416100218E
:1036800001764176012181760221C1610021001D70
:103690000177001F41628162012124300172002103
:1036A00024380163072141638163002124300176BE
:1036B0002438C164FDF76AFB002801D0FDF7ACF99E
:1036C0000120009000200190029069460A48FDF711
:1036D000A7F9002801D0FDF79FF9084800900420C1
:1036E000019069460448FDF79BF9002801D0FDF7D9
:1036F00093F90EBD002401403000002002000004B8
:1037000008B500BF0A48806B012108430849886357
:103710000846806BC007C00F009000BF00BF0022AA
:1037200011460920FEF7F8FA0920FEF7E3FA08BD72
:103730000010024000B587B0142102A8FCF786FDF6
:1037400000BF5748406B0421084355494863084669
:10375000406B04210840019000BF00BF00BF5048EB
:10376000406B012108434E4948630846406BC0073F
:10377000C00F019000BF00BF00BF0846406B022190
:103780000843474948630846406B022108400190BE
:1037900000BF00BF00BF4248406B082108434049BA
:1037A00048630846406B08210840019000BF00BFF5
:1037B00001220F2149023B48FDF75EFF0122022151
:1037C0003948FDF759FF00220121090305200007B0
:1037D000FDF752FF002219213448FDF74DFF00226A
:1037E00040213148FDF748FF0F20400202900120A0
:1037F000039000200490059002A92A48FDF754FE8A
:10380000432040010290002003900120049002A96F
:1038100005200007FDF748FE42200290012003909A
:1038200000200490059002A91F48FDF73DFE0120ED
:1038300000030290002003900120049002A91A487E
:10384000FDF732FEC020029000200390012004907A
:1038500002A91448FDF728FE1548029000200390A5
:103860000120049002A91148FDF71EFE012000036B
:1038700002900120039000200490059002A90520E9
:103880000007FDF711FE192002900120039000208F
:103890000490059002A90548FDF706FE07B000BD9B
:1038A000001002400008005000040050000C0050BE
:1038B0000602000010B51348134908601348486019
:1038C0000021114881600121C16000210161416135
:1038D0008161C1610162FDF74BFF002801D0FDF756
:1038E0009BF800210848FDF7D3FE002801D0FDF722
:1038F00093F800210448FDF702FF002801D0FDF7EE
:103900008BF810BD00540040F0000020BC7D70100A
:1039100010B5134813490860134848600021114846
:1039200081600121C1600021016141618161C1614A
:103930000162FDF71DFF002801D0FDF76DF80021A1
:103940000848FDF7A5FE002801D0FDF765F8002125
:103950000448FDF7D4FE002801D0FDF75DF810BD46
:10396000005800403C010020BC7D701010B512488A
:1039700012490860FF200530486000210F4881602F
:1039800007210902C160002101614161012189040F
:1039900081610821C16100210162416281620721C8
:1039A000C1620021016308214163FEF7BDFF0028C9
:1039B00001D0FDF731F810BD00380040880100202B
:1039C00010B51A481A4908604B20C0014860002110
:1039D00017488160C16001610C2141610021816152
:1039E000C161016241620020114988620846FFF707
:1039F00004FA002801D0FDF70FF800210C48FFF76A
:103A0000CDF9002801D0FDF707F800210848FFF79D
:103A100095F9002801D0FCF7FFFF0548FFF764F98E
:103A2000002801D0FCF7F8FF10BD00000044004062
:103A3000EC01002000BFFEE770470FB430B58FB037
:103A40000446342102A8FCF701FC14A8019002A846
:103A5000019A139901F0D4F805460020019002A9BB
:103A6000204600F071F828460FB030BC08BC04B006
:103A7000184710B500F0D0FE10BD0000F8B50446A0
:103A80000D46164600BF0E480078002801D100F010
:103A9000C3FE00BFEFF310800746012080F31088BB
:103AA00000BF00BF32462946204600F00BF80090C8
:103AB000F8B280F3108800BF00BF0098F8BD000086
:103AC0007C020020F7B582B00746164603980190A5
:103AD000182078431B49401800900098406900283E
:103AE00004D0012811D0022826D11EE0009800F051
:103AF000CBFE0546B54201D2002405E034463246ED
:103B00000199009801F043F818E0009800F0BCFE1D
:103B10000546B54201D2284600E03046044622461A
:103B20000199009801F033F808E0324601990098B5
:103B300000F0F0FF044601E0002400BF00BF204673
:103B400005B0F0BD9402002070B505460C46204635
:103B5000FCF787FB0646324621462846FFF78EFFD4
:103B600070BD0FB438B5044606A800906A462046DA
:103B7000059900F008F8054600200090284638BC5A
:103B800008BC04B01847F7B59AB00D46144602A811
:103B9000159040201690002017901A981990002038
:103BA000189000BF2E786D1C002E00D1E4E0252E69
:103BB00079D100270120149000BF2E78232E12D037
:103BC0002B2E0CD02D2E02D0302E10D103E0012050
:103BD00007436D1C0EE0022007436D1C0AE0042021
:103BE00007436D1C06E0082007436D1C02E000201F
:103BF000149000BF00BF14980028DED1129000BFBF
:103C00002E78302E01DB392E00DD08E06D1C0A21F4
:103C1000129848433146303940181290F0E700BFFF
:103C2000002013902E782E2E11D16D1C00BF2E78FF
:103C3000302E01DB392E00DD08E06D1C0A211398BF
:103C400048433146303940181390F0E700BF2E78D2
:103C500000BF6C2E01D0682E02D16D1C2E7800E0C2
:103C600000E0F6E700BF702E63D008DC252E72D08E
:103C7000582E38D0632E09D0642E71D114E0732EE3
:103C800040D0752E1FD0782E6AD12BE02168081DF8
:103C90002060086814901498C0B2019015A801998A
:103CA00000F016FF5DE05FE02168081D20600868F5
:103CB00014901298019700900A2215A8139B14994A
:103CC00000F0F0FD4DE02168081D206008681490A8
:103CD0001298019700900A2215A8139B149900F0DE
:103CE00069FE3EE000BF2168081D2060086814904E
:103CF000129801970090102215A8139B149900F0B8
:103D000059FE2EE02168081D20600868019000BF60
:103D1000019806780198401C0190002E00D106E021
:103D2000314615A800F0D4FE18980028F0DA00BF3C
:103D300017E02168081D2060086814900020082101
:103D40000B4610220091019015A8149900F032FE44
:103D500007E000E004E0252115A800F0B9FE00E02E
:103D600000BF00BF6D1C03E0314615A800F0B0FE97
:103D70001898002800DB15E700BF189800280BDD15
:103D80001798002804D002A9179A1A98FFF776FE10
:103D9000179918984018189018981DB0F0BD10B5D4
:103DA00004462046FDF76AFB10BD08B53021684681
:103DB000017066214170022100F010F808BD00007A
:103DC00038B504460D4601202B4622468821009036
:103DD0000148FDF737FD38BDF000002038B5044636
:103DE0000D4601202B462246882100900148FDF710
:103DF000DFFD38BDF000002008B5302168460170B5
:103E0000A22141700221FFF7E9FF08BD3EB5C82598
:103E100024216846017200214172022102A8FFF7A5
:103E2000DDFF0AE006216846FFF7CAFF0446002CC2
:103E300000D107E00120FFF7B2FF2846691ECDB28E
:103E40000028EFD100BF002C00D03EBD68460078AE
:103E5000000200B2154908806846407800228A5E58
:103E6000104308800A460021515E114A514308461A
:103E70001049FCF751F91049401800B20B4908806D
:103E80006846C07800020D490880684600790988B4
:103E900008430A4908800988094A514308460549E8
:103EA000FCF73AF90549088000BFCEE70000002082
:103EB0005C440000FFFF00006CEEFFFF02000020EA
:103EC00010270000F8B504460E461546334600227A
:103ED0000321C9022046009500F038F8002805D0DB
:103EE000206E2021084320660320F8BD33460022BF
:103EF00080212046009500F09DF8002805D0206E16
:103F00002021084320660320EFE7334600220321E7
:103F100049022046009500F019F8002805D0206ECF
:103F20002021084320660320DFE70020DDE70000B2
:103F300070B504460D46164633462A4621460248C9
:103F4000FEF7C4FD70BD000088010020FEB50446E8
:103F50000D4616461F46FDF795FB0899401A381A7C
:103F60000190FDF78FFB0090314800682321484302
:103F7000000D01994843029052E00320400285421F
:103F800003D1002E01D12068007B781C002847D087
:103F9000FDF778FB0099411A0198814202D20198FD
:103FA000002836D120684068E021884321684860B5
:103FB000FF210531606888420ED10121C903A06844
:103FC000884203D04911A068884205D12068006862
:103FD000402188432168086001214903A06A884282
:103FE0000DD100BF20680068884321680860206800
:103FF00000680121490308432168086000BF0121CE
:104000005D20015500BF00215C20015500BF032049
:10401000FEBD0298002800D101900298401E029037
:10402000206880682840B042A7D10020F0E7000057
:1040300018000020FFB583B004460D461E46FDF76C
:1040400021FB0C99401A371AFDF71CFB01902F48F1
:1040500000684001000D7843029049E0701C002880
:1040600046D0FDF70FFB0199401AB84201D2002F4C
:1040700037D120684068E021884321684860FF21EB
:104080000531606888420ED10121C903A0688842C9
:1040900003D04911A068884205D1206800684021FA
:1040A00088432168086001214903A06A88420DD134
:1040B00000BF2068006888432168086020680068A5
:1040C0000121490308432168086000BF01215D20E8
:1040D000015500BF00215C20015500BF032007B03F
:1040E000F0BD0298002800D100270298401E0290DF
:1040F000206880682840A84201D1012100E0002109
:1041000005988142AAD10020E9E7000018000020AC
:10411000704710B5FDF776FD10BD000000B59FB0EB
:10412000382111A8FCF792F800200D900E900F9006
:10413000109034216846FCF789F801204002FDF711
:10414000F5FD02201190C001149000201590402030
:104150001690022018900221199100211A9108212D
:104160001B9101041C9101061D9101071E9111A8CC
:10417000FEF7F8F8002801D0FCF74EFC07200D9060
:1041800002200E9000200F90109002210DA8FDF744
:1041900073FF002801D0FCF73FFC07480090002087
:1041A0000290049008906846FDF7ECFD002801D0CD
:1041B000FCF732FC1FB000BD224000000120C00609
:1041C000014988607047000000ED00E0F0B585B05F
:1041D00004461BA103C9039102901BA103C90191CD
:1041E0000090606E002805D101216A2001536820EB
:1041F000015322E0082708220492206880680721E2
:1042000049060840450E20688068460F6A46915D61
:1042100002AA935D049A53431846FBF77DFF81B2CF
:104220006A2001536A46515D02AA525D7A431046E4
:10423000FBF772FF81B26820015305B0F0BD0000AA
:104240000101010307010000080402040801010143
:10425000018DC907C90F002908D0016849680122EA
:1042600052049143C26A1143026851600222816A7A
:104270001140022907D101684968D2039143026BBA
:104280001143026851600422816A1140042907D158
:104290000168496812049143426B114302685160FE
:1042A0000822816A1140082907D101684968120370
:1042B0009143826B1143026851601022816A114060
:1042C000102907D10168896812029143C26B11431A
:1042D000026891602022816A1140202907D101687B
:1042E000896812029143026C114302689160402276
:1042F000816A1140402915D10168496892039143B0
:10430000426C11430268516001221205416C9142D6
:1043100008D101684968032252059143826C114318
:10432000026851608022816A1140802907D10168AA
:10433000496812039143C26C11430268516070478F
:1043400038B5044600218C200151FDF79BF9054644
:10435000206800680821084008280BD115482B4622
:10436000002289040090204600F0D6F9002801D0F0
:10437000032038BD206800680421084004280BD1C0
:104380000C482B46002209050090204600F0C4F995
:10439000002801D00320ECE720218420015188204F
:1043A00001510020E06600BF00218020015500BFC0
:1043B0000020DEE7FFFFFF01F0B58DB004460020CE
:1043C0000590C9492068884200D100E000BF2169FA
:1043D000A068084361690843E16908430790606E7B
:1043E00007990843079020680068C049084007996A
:1043F0000843216808602068406803210903884356
:10440000E168084321684860A0690790B6492068C0
:10441000884203D0206A0799084307902068806883
:10442000B349084007990843216888602068C06A3A
:1044300000090001616A08432168C86200BFAD49F4
:104440002068884217D1AC4840698007800F002857
:1044500006D0012808D0022804D0032808D105E09E
:10446000002507E0022505E0042503E0082501E01A
:10447000102500BF47E0A1492068884217D19E4817
:1044800040690C210840002806D0042808D00828DC
:1044900004D00C2808D105E0002507E0022505E03E
:1044A000042503E0082501E0102500BF2BE0944916
:1044B0002068884201D1002525E092492068884281
:1044C00001D100251FE08849206888421AD18A4816
:1044D0004069032189020840002808D0012189028F
:1044E000401A08D0401A04D0401A08D105E000252F
:1044F00007E0022505E0042503E0082501E010257A
:1045000000BF00E0102500BF77492068884263D1D2
:10451000002D06D0022D08D0042D08D0082D0DD175
:1045200009E0FDF799FE06460CE0774E0AE0FDF73C
:10453000A7FE064606E00126F60303E0002601205A
:10454000059000BF00BF002E14D0606A40006F4A83
:10455000115A3046FBF7CAFD0490606841004118CB
:104560000498814204D8606801030498814202D211
:1045700001200590ADE0606A40006449085A024697
:104580000023019030461946FBF7DAFDFF23013383
:104590000022099308920A910B901A46089BFBF798
:1045A000FFFD626852080023801859410391029070
:1045B0006068024601900298FBF7C2FD074603219E
:1045C00009028F4205D35248874202D82068C7604B
:1045D0007FE0012005907CE00121C903E069884269
:1045E00041D1002D06D0022D08D0042D08D0082D71
:1045F0000DD109E0FDF730FE06460CE0424E0AE020
:10460000FDF73EFE064606E00126F60303E000261F
:104610000120059000BF00BF002E5AD0606A400004
:104620003A4A115A3046FBF761FD4000616849087B
:10463000401803906168FBF759FD87B2102F0FD324
:10464000344887420CD833480F3838400690380732
:10465000400F06990843069006982168C86038E024
:104660000120059035E0002D06D0022D08D0042D44
:1046700008D0082D0DD109E0FDF7EEFD06460CE04F
:10468000214E0AE0FDF7FCFD064606E00126F60392
:1046900003E000260120059000BF00BF002E18D0C7
:1046A000606A4000194A115A3046FBF71FFD6168E5
:1046B0004908401803906168FBF718FD87B2102F76
:1046C00005D31448874202D82068C76001E0012062
:1046D000059001216A2001536820015300202067C2
:1046E000606705980DB0F0BD00800040F369FFCF12
:1046F000FFF4FF1100380140401002400044004028
:1047000000480040004C00400024F4008081000874
:10471000FFFF0F00FFFF0000FFB581B004460D460C
:1047200017460A9E4FE0701C00284CD0FCF7AAFFE9
:104730000499401AB04201D8002E19D120680068AF
:10474000FF21A13188432168086020688068400803
:104750004000216888602021842001518820015177
:1047600000BF00218020015500BF032005B0F0BD2F
:104770002068006804210840002824D02068C0690F
:1047800049020840C00A00281DD008462168086276
:1047900020680068FF21A1318843216808602068F3
:1047A00080684008400021688860202184200151F1
:1047B000882001518C20015100BF0021802001552B
:1047C00000BF0320D2E72068C0692840A84201D179
:1047D000012000E00020B842A5D00020C6E700007C
:1047E00010B50B480068C069202108404009002826
:1047F0000CD007480068806908210843044909680B
:1048000088610449496AC8B201F080FC10BD00000B
:10481000EC0100200044004010B5124C0320206140
:10482000606111A0A0611349E16101218902216247
:104830000021A1626162E1620BA020660E496166FF
:104840001021A16600212167E16661670BA1E01DCF
:10485000FBF70EFD0AA12046FBF70AFD2020A07100
:1048600010BD00007C0200205465726D696E616CA1
:1048700000000000240300202407002052545400AC
:10488000534547474552000010B501460A69CB68B9
:104890009A4204D88C68641EE41AA01801E0D41A65
:1048A000601E10BDFFB585B006460F460F9D0E9CDD
:1048B000002F01DA784200E038460390012004908E
:1048C00007E007990398FBF727FC03900498401C26
:1048D0000490079903988842F3DA0499089888426B
:1048E00001D908980490002C06D0002F03DB042087
:1048F0002840042800D1641E02202840002802D04D
:104900000898002815D0E807C00F002811D1002C06
:104910000FD008E0641E2021304600F0D9F8F0687E
:10492000002800DA04E0002C02D00498A042F1D361
:1049300000BFF06800283ADB002F05DA7F422D2106
:10494000304600F0C5F807E004202840042803D1D1
:104950002B21304600F0BCF8F068002827DB02204D
:104960002840022818D1E807C00F002814D1089861
:10497000002811D1002C0FD008E0641E30213046F1
:1049800000F0A6F8F068002800DA04E0002C02D05D
:104990000498A042F1D300BFF068002807DB01951E
:1049A000009439463046089B079A00F003F809B096
:1049B000F0BD0000FFB585B0064617461D460E9CAB
:1049C0000698029001200390019007E03946029872
:1049D000FBF78CFB02900198401C01900298B842B2
:1049E000F4D20198854200D901950F98C007C00FF5
:1049F00000281DD1002C1BD002210F98084002284E
:104A000004D1002D02D13020009001E02020009040
:104A100008E0641E3046009900F05AF8F06800285B
:104A200000DA04E0002C02D00198A042F1D300BFCC
:104A3000F068002848DB0FE0012D01D96D1E08E069
:104A400003990698FBF752FB04900498B84200D2F1
:104A500003E0039878430390EEE700BF00BF03999B
:104A60000698FBF743FB0490039904984843069982
:104A7000081A0690154A0498115C304600F028F890
:104A8000F068002800DA07E039460398FBF72EFBB0
:104A9000039003980028E2D100BF0F98C007C00F11
:104AA000002811D0002C0FD008E0641E20213046D1
:104AB00000F00EF8F068002800DA04E0002C02D0C4
:104AC0000198A042F1D300BF09B0F0BD00820008F8
:104AD00070B504460E46A568681C6168814206D31D
:104AE00020684655681CA060E068401CE060616872
:104AF000A06888420DD1A26821682069FEF7BEFF38
:104B0000A168884203D00020C043E06001E000209B
:104B1000A06070BDF7B582B0044617460020019032
:104B2000E56800BF206900900098A84203D900986A
:104B3000401B461E04E0A1680098281A401C0E1A6B
:104B4000A068401BB04201D9304601E0A068401B7C
:104B50000646BE4201D2304600E03846064661684D
:104B6000481932460399FBF758FB019880190190C8
:104B7000039880190390BF1BAD19A068A84200D10B
:104B80000025E560002FCDD1019805B0F0BDF7B547
:104B900082B004461546E668A068871BAF4208D974
:104BA000616888192A460399FBF737FB7019E060A2
:104BB00010E0019761688819019A0399FBF72DFBB2
:104BC000E81B0190039AD1196068019AFBF725FB55
:104BD0000198E06005B0F0BD0FB410B504A9074B13
:104BE00002AA039800F04AF9044602A9002000F046
:104BF000E1FC204610BC08BC04B01847B5550008BD
:104C000037B514460846064B6A46214600F036F989
:104C100004466946002000F0CDFC20463EBD000061
:104C2000B55500082021020C01D010211046020ABF
:104C300001D010460839020901D01046091F820828
:104C400001D01046891E420801D0881E7047081AFC
:104C5000704730B47446641E2578641CAB4204D39C
:104C6000635D5B00E31830BC18471D46F8E70000A1
:104C700010B5002819DB1A4A03231B02D218830837
:104C80009B00D2588307DC0EFF23A3409A438B0777
:104C90001B0E8407E40EA3401A43114B0324240285
:104CA0001B198408A4001A5118E00E4A03071B0FB1
:104CB000083B9B089B00D2588307DC0EFF23A340D0
:104CC0009A438B071B0E8407E40EA3401A43054B3F
:104CD0000407240F083CA408A4001A5110BD0000CA
:104CE00000E100E01CED00E002E008C8121F08C16E
:104CF000002AFAD170477047002001E001C1121F5D
:104D0000002AFBD170470000F0B51FB486B00998A7
:104D1000089A030D0021024314D05148514A181833
:104D2000504305141198012810981AD0281A401CD5
:104D300000264D4F4D49009601910490002812DA4B
:104D4000444211E01198012449A3012801D110988F
:104D5000C1430698119A84600360C26041600BB041
:104D6000F0BD4042E4E70446210500203F4A001C14
:104D700051410391029012E0E00707D032463B46D2
:104D800001990098FBF77EFA0191009032463B466C
:104D900010461946FBF776FA06460F466410002CBB
:104DA000EAD10498039B0028029A0999089806DA28
:104DB000FBF768FA019B009AFBF764FA05E0FBF742
:104DC000C9FA019B009AFBF7C5FA04460E46002279
:104DD000284BFBF7C9FC03D80020C043014607E07D
:104DE0000022254B20463146FBF7ECFBFBF79CFCF1
:104DF000102409E0002C0ADB0A220023FBF7A0F9AB
:104E0000079B30321A55641E02460A43F2D1112222
:104E1000641C079B121B1C19119B012B03D001233F
:104E200008430ED10AE0084304D01120109000205E
:104E3000119077E71098151A6D1E0BE010988242BA
:104E400002DD00236D1C03E0824201DA00236D1EA7
:104E5000002BEED0069811998260C16030C07EE7C9
:104E600001FCFFFF104D0000000014400000F03F67
:104E7000300000000000F0430000E03FFFB597B0B5
:104E80000646002518E2252877D100242746FD494B
:104E9000049400E00443761C32780120203A9040CC
:104EA0000842F7D130782A280ED002223078014605
:104EB0003039092916D804990A2359433039401842
:104EC0001443761C0490F1E7189802C804911890D6
:104ED000002904DA012040030443484204900220E0
:104EE0000443761C30782E2814D1042004437078B3
:104EF000761C2A2809D11898761C80C8189009E0D9
:104F00000A214F43303FC719761C307801463039AB
:104F10000929F5D930786C2810D006DC4C281AD035
:104F200068280ED06A2817D104E0742813D07A2894
:104F300012D110E00120400504430CE001210905D5
:104F400001E0032109050C437178814203D101205E
:104F500000052418761C761C3078119066280BD03A
:104F600013DC58287DD009DC00287BD04528F6D0FA
:104F70004628F4D047281AD1A5E118E0632835D097
:104F8000642870D0652812D19DE170286CD008DCAF
:104F90006728F1D069287BD06E280DD06F2806D104
:104FA000BAE073282ED0752871D0782859D01A9A73
:104FB000199990476D1C7EE16002400F022809D0CC
:104FC00003280DD00428189801680DD00D60001D2D
:104FD000189070E11898EA1701680D604A60F6E7CA
:104FE000189801680D80F2E70D70F0E718986A468E
:104FF00001781172001D18900020507202A80090D4
:10500000012005E0189802C8189000200091C043C4
:1050100061070DD5002101E00199491C0191B942B8
:1050200012DA8142F8DB009A515C0029F4D10BE0DE
:10503000002101E00199491C01918142FADB019AAA
:105040000099895C0029F5D1019904981A9B471AA7
:1050500021463846199A00F097FA019940194518E7
:105060000BE04FE02CE113E04EE00098009900784F
:10507000491C00911A9A199990470198401E019075
:10508000401CF2D1214638461A9B199A10E137E0AC
:105090000A200021009001916002410F022907D0EF
:1050A000189A01CA1892C2179446032908D00AE038
:1050B0001898C01DC108C90005C91891944607E099
:1050C00000B2C2179446042902D140B2C1178C46DF
:1050D00000226146944506DA0A4600214042914189
:1050E0008C462D2102E0210504D52B216A4611733F
:1050F000012103E0E10701D02021F7E7029155E00B
:105100000A200AE0102008E010200090002104206E
:1051100004430191082703E0082000210191009039
:105120006002410F022907D0189A01CA1892002282
:105130009446032908D008E01898C01DC108C9008A
:1051400005C91891944603E080B2042900D1C0B289
:1051500000210291210729D51199702906D0009AC2
:105160001021019B4A401A4305D00EE040216A46B7
:105170001173012108E06146014306D030216A46DF
:1051800011731199517302210291009A0821019B18
:105190004A401A430AD16146014301D1610705D54E
:1051A00030216A46117301217F1E029111995829FD
:1051B00004D035A10E910DA90D910DE037A1F9E7AD
:1051C0006146019B009AFAF7BBFF0E9B8C469B5CE5
:1051D0000D9A521E0D92137061460143F0D10D9845
:1051E00005A9081A20300190600703D501200004AA
:1051F000844300E001270198874201DD381A00E06E
:105200000020019900904118029809180498401A4A
:105210000490E00306D421461A9B199A049800F0E2
:10522000B3F94519002706E003A81A9AC05D199939
:1052300090476D1C7F1C02988742F5DBE0030CD57C
:1052400021461A9B199A049800F09EF9451904E02A
:105250001A9A3020199990476D1C0099481E0090A9
:105260000029F5DC08E00D980D990078491C0D9196
:105270001A9A199990476D1C0199481E01900029AE
:10528000F1DC63E10928010030313233343536373F
:105290003839616263646566000000003031323382
:1052A0003435363738394142434445460000000022
:1052B00000F05AF94519761C3078002800D0E2E554
:1052C00028461BB0F0BD600700D406271898C01D03
:1052D000C108C90048680A680831C30FDB07189184
:1052E000190001D09CA108E0210501D59BA104E093
:1052F000E10701D09AA100E09AA1430011985B0850
:10530000109165280CD006DC452809D046281DD010
:10531000472841D141E0662818D067283CD13CE0BD
:105320000021112F01DB112000E0781C0191009079
:1053300008A911A8FFF7E8FC139905910021119A1B
:1053400015927F1C12980197009150E00120C00730
:1053500003900120019008A9009711A8FFF7D4FC41
:10536000139A149905920022119B0092129815939A
:10537000059A0192002901D0104602E0791C4018DC
:105380000190381A01D5019804E04042401E009077
:10539000781C0190C01B029043E0012F00DA012726
:1053A0000021112F01DD112000E03846019100900D
:1053B00008A911A8FFF7A8FC13990591119A0021DB
:1053C000129815920091019721070CD40599B942C2
:1053D00001DB019900E00191012904DD159A491EC4
:1053E000515C302906D0B84201DA011D05DA0121ED
:1053F000029115E00199491EEDE7002805DC0099AE
:10540000411800910199091A03E0019A411C914247
:1054100000DD01910099401A401C02900120C00754
:105420000390200706D402990198814202DB0020F4
:10543000C043029000206946C87707AF0121039856
:105440000337C907884224D0022011902B201290E4
:10545000039800280CDA404203902D20129007E0B8
:105460000A210398FAF742FE30317F1E039039700B
:105470001199481E11900029F2DC03980028EFD101
:10548000791E129808703078202108404530BF1EE0
:10549000387006A8C01BC01D039010980078002823
:1054A00000D00120019941180298C01709180398EB
:1054B00009180498401A401E0490E00306D42146BF
:1054C0001A9B199A049800F05FF845191098007813
:1054D000002803D01A9A199990476D1CE00324D52F
:1054E00021461A9B199A049800F04EF845191CE0C1
:1054F0000098002807DB00990598884203DD15987D
:10550000405C199901E0199930201A9A9047009847
:105510006D1C401C00900298401E0290002804D18F
:105520001A9A2E20199990476D1C0199481E0190D6
:105530000029DDDC05E038781A9A7F1C199990471C
:105540006D1C0399481E03900029F4DC21461A9B28
:10555000199A0498ACE600002D0000002B00000012
:105560002000000000000000F8B5044600251E469B
:105570001746880404D405E039462020B0476D1C46
:10558000641EF9D52846F8BDFFB50446002581B054
:105590001E46C80301D5302700E02027880404D523
:1055A00005E038460399B0476D1C641EF9D52846BE
:1055B00005B0F0BD0A68531C0B6010707047000006
:1055C000F8B512490020085EFAF73CFF0646104A7B
:1055D000104BFAF757FE0446FAF756FF01460090C3
:1055E000012000F05DFC0C480088FAF73FFF0446FC
:1055F0000A4A0B4BFAF746FE0646FAF745FF014604
:105600000090022000F04CFCF8BD000000000020DB
:105610009A9999999999B93F020000207B14AE4755
:10562000E17A843F01460020087800024A7810435E
:1056300000028A7810430002CA78104370470000C5
:10564000FEB504462849E01C085C00900098030061
:10565000FFF7FFFA0906090C0F1A1E2247444700FC
:1056600000F010FA3EE000F095FC3BE000F002FA9A
:1056700038E01D49A01D085C1C4908700022032168
:10568000084600F01DFE2DE001201949087029E0B0
:1056900001201849087025E01349201D085C070205
:1056A0000A46611D515C0F43002514E0A01D4019FE
:1056B000801C0D49085C0602A01D4019C01C085C36
:1056C000801986B20919891D481900F015F8019052
:1056D000301D281885B2BD42E8DB03E0FFF770FFFC
:1056E00000E000BF00BFFEBD340700202B000020FB
:1056F000290000202A000020FEB50446267867789D
:10570000A0780502E078401985B2304600F09AF999
:10571000019001984000074940184078B84201D0F4
:105720000020FEBD2A46211D304600F01DF80090E5
:105730000098F6E71782000810B504462046FBF7EC
:105740009DFE10BDF8B504460D462946204600F0E2
:10575000E6FB07463946102000F0A2FB0646012E64
:1057600000D1F8BD0020FCE7F8B505460E46174607
:105770002846112D44D00ADC801F0300FFF769FA88
:105780000B161C6A6A22282E346A6A3A6A001528A7
:105790004ED006DC122839D013283DD0142859D118
:1057A00040E016284AD0652854D14DE039463046AD
:1057B00000F0F6F804464EE03946304600F072F844
:1057C000044648E03946304600F090F8044642E08E
:1057D0003946304600F0AEF804463CE039463046E3
:1057E00000F072F8044636E03946304600F090F892
:1057F000044630E039463046FFF7A4FF04462AE06D
:105800003946304600F0BAF8044624E039463046BE
:1058100000F024F804461EE03946304600F0D2F885
:10582000044618E03946304600F02AF8044612E0F3
:105830003946304600F090F804460CE039463046D0
:1058400000F0D2F8044606E03946304600F0DEF8B3
:10585000044600E000BF00BF2046F8BDF8B504468E
:105860000D462946204600F05AFB074639461220CD
:1058700000F016FB0646012E00D1F8BD0020FCE723
:10588000F8B504460D462946204600F048FB074679
:105890003946142000F004FB0646012E00D1F8BD65
:1058A0000020FCE7F8B504460D462946204600F0E6
:1058B00036FB07463946072000F0F2FA0646012E6D
:1058C00000D1F8BD0020FCE7F8B504460D46294696
:1058D000204600F024FB074639460C2000F0E0FA91
:1058E0000646012E00D1F8BD0020FCE7F8B50446BD
:1058F0000D462946204600F012FB074639460A208D
:1059000000F0CEFA0646012E00D1F8BD0020FCE7DB
:10591000F8B504460D462946204600F000FB074630
:1059200039460D2000F0BCFA0646012E00D1F8BD24
:105930000020FCE7F8B504460D462946204600F055
:10594000EEFA074639460B2000F0AAFA0646012E69
:1059500000D1F8BD0020FCE7F8B504460D46294605
:10596000204600F0D9FA07463946152000F02CFAF7
:105970000646012E00D1F8BD0020FCE7F8B504462C
:105980000D462946204600F0CAFA0746394611203E
:1059900000F086FA0646012E00D1F8BD0020FCE793
:1059A000F8B504460D462946204600F0B8FA0746E9
:1059B0003946062000F074FA0646012E00D1F8BDE3
:1059C0000020FCE7F8B504460D462946204600F0C5
:1059D000A6FA07463946132000F062FA0646012E61
:1059E00000D1F8BD0020FCE7F8B504460D46294675
:1059F000204600F094FA07463946162000F050FA87
:105A00000646012E00D1F8BD0020FCE770B5044623
:105A10000D462A462146652000F00AFA0646012E68
:105A200000D170BD0020FCE730B502460020002305
:105A300005E01578521C2C18E0B25C1CA3B28B4216
:105A4000F7DB30BD70B5054600F012F806460024BD
:105A500007E060000549085CA84200D103E0601C33
:105A6000C4B2B442F5DB00BF204670BD1782000807
:105A70001620704710B5002422460321022000F0B2
:105A80001FFC10BD10B500240B480078002808D179
:105A90000021204600F014FBC4B201200649087022
:105AA00004E00121204600F00BFBC4B22246032192
:105AB000002000F005FC10BD2C0000208CB0FCF78D
:105AC000ADF8FEF72BFBFDF735FEFDF719FEFDF7F0
:105AD000F1FEFDF71DFFFDF749FFFDF7BDFDFDF7E9
